{
  "contractName": "Will",
  "abi": [
    {
      "inputs": [
        {
          "name": "dline",
          "type": "uint256"
        },
        {
          "name": "first",
          "type": "string"
        },
        {
          "name": "last",
          "type": "string"
        }
      ],
      "payable": true,
      "stateMutability": "payable",
      "type": "constructor"
    },
    {
      "payable": true,
      "stateMutability": "payable",
      "type": "fallback"
    },
    {
      "constant": false,
      "inputs": [
        {
          "name": "pwd1",
          "type": "string"
        },
        {
          "name": "pwd2",
          "type": "string"
        },
        {
          "name": "sonaddress",
          "type": "address"
        },
        {
          "name": "ngoaddress",
          "type": "address"
        }
      ],
      "name": "withdraw",
      "outputs": [],
      "payable": true,
      "stateMutability": "payable",
      "type": "function"
    },
    {
      "constant": false,
      "inputs": [
        {
          "name": "ngo",
          "type": "address"
        }
      ],
      "name": "cancelWithdraw",
      "outputs": [],
      "payable": true,
      "stateMutability": "payable",
      "type": "function"
    },
    {
      "constant": false,
      "inputs": [],
      "name": "contract_balance",
      "outputs": [
        {
          "name": "",
          "type": "uint256"
        }
      ],
      "payable": false,
      "stateMutability": "nonpayable",
      "type": "function"
    },
    {
      "constant": false,
      "inputs": [],
      "name": "killContract",
      "outputs": [],
      "payable": false,
      "stateMutability": "nonpayable",
      "type": "function"
    }
  ],
  "bytecode": "0x60806040526040516106813803806106818339810180604052810190808051906020019092919080518201929190602001805182019291905050508260008190555081600190805190602001906100579291906100c7565b50806002908051906020019061006e9291906100c7565b5060003411151561007e57600080fd5b33600360006101000a81548173ffffffffffffffffffffffffffffffffffffffff021916908373ffffffffffffffffffffffffffffffffffffffff16021790555050505061016c565b828054600181600116156101000203166002900490600052602060002090601f016020900481019282601f1061010857805160ff1916838001178555610136565b82800160010185558215610136579182015b8281111561013557825182559160200191906001019061011a565b5b5090506101439190610147565b5090565b61016991905b8082111561016557600081600090555060010161014d565b5090565b90565b6105068061017b6000396000f300608060405260043610610062576000357c0100000000000000000000000000000000000000000000000000000000900463ffffffff168063057440d3146100645780631c02708d1461008f578063ddb64f02146100a6578063e991962914610188575b005b34801561007057600080fd5b506100796101be565b6040518082815260200191505060405180910390f35b34801561009b57600080fd5b506100a46101dd565b005b610186600480360381019080803590602001908201803590602001908080601f0160208091040260200160405190810160405280939291908181526020018383808284378201915050505050509192919290803590602001908201803590602001908080601f0160208091040260200160405190810160405280939291908181526020018383808284378201915050505050509192919290803573ffffffffffffffffffffffffffffffffffffffff169060200190929190803573ffffffffffffffffffffffffffffffffffffffff16906020019092919050505061024e565b005b6101bc600480360381019080803573ffffffffffffffffffffffffffffffffffffffff169060200190929190505050610480565b005b60003073ffffffffffffffffffffffffffffffffffffffff1631905090565b600360009054906101000a900473ffffffffffffffffffffffffffffffffffffffff1673ffffffffffffffffffffffffffffffffffffffff163373ffffffffffffffffffffffffffffffffffffffff16141561024c573373ffffffffffffffffffffffffffffffffffffffff16ff5b565b600160405180828054600181600116156101000203166002900480156102ab5780601f106102895761010080835404028352918201916102ab565b820191906000526020600020905b815481529060010190602001808311610297575b5050915050604051809103902060001916846040518082805190602001908083835b6020831015156102f257805182526020820191506020810190506020830392506102cd565b6001836020036101000a0380198251168184511680821785525050505050509050019150506040518091039020600019161480156104025750600260405180828054600181600116156101000203166002900480156103885780601f10610366576101008083540402835291820191610388565b820191906000526020600020905b815481529060010190602001808311610374575b5050915050604051809103902060001916836040518082805190602001908083835b6020831015156103cf57805182526020820191506020810190506020830392506103aa565b6001836020036101000a038019825116818451168082178552505050505050905001915050604051809103902060001916145b801561040f575060005442105b15610470578173ffffffffffffffffffffffffffffffffffffffff166108fc3073ffffffffffffffffffffffffffffffffffffffff16319081150290604051600060405180830381858888f19350505050151561046b57600080fd5b61047a565b61047981610480565b5b50505050565b8073ffffffffffffffffffffffffffffffffffffffff166108fc3073ffffffffffffffffffffffffffffffffffffffff16319081150290604051600060405180830381858888f1935050505015156104d757600080fd5b505600a165627a7a72305820cc75fd0588c0cffa9b028c3517e07efbe6e98718d1fa04a26d13f3f4254bf28a0029",
  "source": "pragma solidity ^0.4.18;\n\ncontract Will{\n    \n    uint deadline;\n    string fpart;\n    string spart;\n    address owner;\n   \n    \n    function() payable{\n    }   \n\n\n    function Will(uint dline, string first, string last) public payable {\n        \n        deadline=dline;\n        fpart=first;\n        spart=last;\n        require(msg.value>0);\n        owner=msg.sender;\n        \n    }\n    \n    \n    \n    function withdraw(string pwd1, string pwd2, address sonaddress, address ngoaddress) public payable {\n        \n    if(keccak256(pwd1)==keccak256(fpart) && keccak256(pwd2)==keccak256(spart) && now<deadline){\n\n            if(!sonaddress.send(this.balance)){\n            throw;\n            }\n            return ;\n     \n      }\n      \n      else {\n          cancelWithdraw(ngoaddress);\n      }\n    \n    }\n    \n    \n    \n    function cancelWithdraw(address ngo) public payable  {\n        \n            if(!ngo.send(this.balance)){\n            throw;\n            }\n            return ;\n     \n    \n    }\n    \n    function contract_balance() returns (uint){\n        return this.balance;\n    }\n    \n    \n    function killContract() public {\n        if(msg.sender==owner){\n            selfdestruct(msg.sender);\n        } else return;\n        \n    }\n\n    \n}\n\n",
  "sourcePath": "/home/namrathamohan/Desktop/CSC4700_Part2/Will/contracts/Will.sol",
  "compiler": {
    "name": "solc",
    "version": "0.4.23+commit.124ca40d.Emscripten.clang"
  },
  "schemaVersion": "2.0.0",
  "updatedAt": "2018-04-28T19:13:30.681Z"
}